:100000000C942A000C94C3000C949D000C943400B2
:100010000C9434000C9434000C9434000C94340090
:100020000C9434000C9434000C9434000C94340080
:100030000C9434000C9434000C9434000C94340070
:100040000C9434000C9434000C9477000C9434001D
:100050000C94340011241FBECFE5D4E0DEBFCDBF29
:100060000E94E9000C94F4000C9400008D9A8E9A82
:100070008F9A9598969897988A988B98BA98089599
:1000800092B321E030E002C0220F331F8A95E2F7DD
:10009000922B92BB80E197E249E150E0FA0131975F
:1000A000F1F70197D9F782B32095282322BB089551
:1000B0008FB780688FBF089585B7816085BF85B78A
:1000C0008D7F85BF8BB780648BBF089585B78460B3
:1000D00085BF85B7886085BF8BB780688BBF089563
:1000E00084B78F7B84BF8BB780628BBF08951F92CC
:1000F0000F920FB60F9211242F933F934F935F935C
:100100006F937F938F939F93AF93BF93EF93FF93DF
:1001100087E090E00E944000FF91EF91BF91AF9186
:100120009F918F917F916F915F914F913F912F910F
:100130000F900FBE0F901F9018951F920F920FB641
:100140000F9211242F933F934F935F936F937F935D
:100150008F939F93AF93BF93EF93FF9386E090E0CD
:100160000E944000FF91EF91BF91AF919F918F91BD
:100170007F916F915F914F913F912F910F900FBEA3
:100180000F901F9018951F920F920FB60F92112487
:100190002F933F934F935F936F937F938F939F938F
:1001A000AF93BF93EF93FF9385E090E00E944000F0
:1001B000FF91EF91BF91AF919F918F917F916F913F
:1001C0005F914F913F912F910F900FBE0F901F9015
:1001D00018950E9436000E9458000E945C000E9400
:0C01E00066000E947000FFCFF894FFCF73
:00000001FF
