:020000040800F2
:100000000028002041040008910400089104000821
:100010009104000891040008910400080000000009
:100020000000000000000000000000009104000833
:1000300091040008000000009104000891040008E9
:10004000910400089104000891040008910400083C
:10005000910400089104000891040008910400082C
:10006000910400089104000891040008910400081C
:10007000910400089104000891040008910400080C
:1000800091040008910400089104000891040008FC
:1000900091040008910400089104000891040008EC
:1000A00091040008910400089104000891040008DC
:1000B00091040008910400089104000891040008CC
:1000C00091040008910400089104000891040008BC
:1000D00091040008910400089104000891040008AC
:1000E0009104000891040008000000009104000839
:1000F000910400089104000891040008910400088C
:10010000910400089104000891040008910400087B
:10011000910400089104000891040008910400086B
:10012000910400089104000891040008910400085B
:1001300010B5054C237833B9044B13B10448AFF321
:1001400000800123237010BD0C000020000000007F
:10015000DC04000808B5034B1BB103490348AFF3A7
:10016000008008BD0000000010000020DC04000832
:1001700080B400AF034B00221A7000BFBD4680BCA4
:10018000704700BF2C00002080B500AF074B012254
:100190001A70012000F0DEF8054B1B68184600F0CD
:1001A000BDF8044B044A1A6000BF80BD2C0000203B
:1001B0000000002028000020BD01000880B500AF2D
:1001C000054B02221A70002000F0C4F8034B044AC9
:1001D0001A6000BF80BD00BF2C0000202800002056
:1001E0007101000880B400AF034B044A1A6000BFDD
:1001F000BD4680BC704700BF280000208901000870
:1002000080B400AF034B00221A7000BFBD4680BC13
:10021000704700BF3000002080B500AF044B0122C2
:100220001A70FFF7DFFF034B034A1A6000BF80BD5F
:1002300030000020380000203D02000880B400AFEC
:10024000044B02221A70044B044A1A6000BFBD46D8
:1002500080BC704730000020380000203D020008BC
:1002600080B483B000AF78600A4A7B681360094BA2
:100270001A68094B1B689A4203DB084B084A1A604C
:1002800002E0064B074A1A6000BF0C37BD4680BC2F
:10029000704700BF34000020040000203800002018
:1002A000190200083D02000880B500AF00F070F8A8
:1002B00000BF80BD80B500AF084B00221A7000F06F
:1002C0003DF80246064B1A60054B1B681846FFF7BF
:1002D000C7FF044B044A1A6000BF80BD3C000020E9
:1002E0003400002040000020ED02000880B500AF7F
:1002F000064B01221A70064B1B68184600F00EF8D8
:10030000044B054A1A6000BF80BD00BF3C000020BE
:100310000800002040000020B502000880B483B02F
:1003200000AF786002E07B68013B7B607B68002B5C
:10033000F9D100BF0C37BD4680BC704780B400AF18
:10034000034B1B68DBB21846BD4680BC704700BF3C
:100350000808014080B483B000AF78607B68012B4F
:1003600006D10A4B1B68094A43F40053136008E0A6
:100370007B68002B05D1054B1B68044A23F400530E
:10038000136000BF0C37BD4680BC70470C080140AD
:1003900080B400AF0F4B1B680E4A43F00403136098
:1003A0000D4B1B680C4A23F4700313600A4B0A4A76
:1003B0001B681360094B1B68084A23F47003136021
:1003C000064B1B68054A43F02233136000BFBD464D
:1003D00080BC70471810024000080140040801402A
:1003E00080B500AFFFF760FF054B064A1A60064B69
:1003F000064A1A60064B074A1A6000BF80BD00BF5C
:1004000040000020ED0200082800002071010008D3
:10041000380000200102000880B500AFFFF7E0FFC0
:10042000044B1B689847044B1B689847034B1B6899
:100430009847F5E740000020380000202800002001
:100440000D488546AFF300800C480D490D4A002346
:1004500002E0D458C4500433C4188C42F9D30A4A79
:100460000A4C002301E013600432A242FBD300F0E7
:1004700011F8FFF7D1FFFEE7002800200000002060
:100480000C000020FC0400080C00002044000020A8
:10049000FEE7000070B500250C4E0D4CA41BA41007
:1004A000A54209D100F01AF800250A4E0A4CA41BF7
:1004B000A410A54205D170BD56F8253098470135E6
:1004C000EEE756F8253098470135F2E7F4040008C6
:1004D000F4040008F4040008F8040008F8B500BFAC
:1004E000F8BC08BC9E467047F8B500BFF8BC08BC15
:0404F0009E4670476D
:0404F40055010008A6
:0404F80031010008C6
:0C04FC0040420F001400000064000000EB
:0400000508000441AA
:00000001FF
